0000120161202034650788930009000FUEL         50001000MILK         00000000             001000
0000220161202034650788845011000FUEL         00000000             00000000             001100
0000320161202034650788510005000FUEL         10003000EGGS         10006000BEER         001400
0000420161202034640728010005000FUEL         00000000             00000000             000500
0000520161202034640723120004000EGGS         00000000             00000000             000400
0000620161202034640722910000750MILK         10000150BREAD        10000100EGGS         000100
